:100000000C9478020C9495020C9495020C942C2676
:100010000C9495020C9495020C9495020C94950204
:100020000C9495020C9495020C94E82B0C94BB2C28
:100030000C941B230C9495020C9495020C9495023D
:100040000C9495020C9495020C9495020C949502D4
:100050000C9495020C94D3230C9495020C94950265
:100060000C9495020C9495020C9495020C949502B4
:100070000C9495020C9495020C9495020C949502A4
:100080000C9495020C9495020C9495020C94950294
:100090000C9495020C9495020C9495020C94950284
:1000A0000C9495020C9495020C9495022B4214002A
:1000B0001A00080015001700282104001600070088
:1000C00009000A0029221D001B0006001900050076
:1000D000000000002A242C0021524C432D02130062
:1000E00012000C0018001C00340033000F000E003A
:1000F0000D000B00350038003700360010001100ED
:10010000000000002A002842A252E3002E0233021F
:100110002400250026002D00E000630021002200BD
:1001200023003402E10027001E001F0020002102EE
:1001300000000000E2000100010017702F003102F2
:1001400030022602250223028902220238021F02FF
:1001500024022002870287002F02320030001E0294
:100160000000000037023602E1002E000100737C1F
:100170004000410042009000E000AF523D003E00D0
:100180003F000401E100A7523A003B003C001B0184
:1001900000000000E200060119011D0150094E0097
:1001A0004D004A004B009100E20076004F005200E3
:1001B000510050004F09645245004400430049007B
:1001C0000000000001000100E100E3002B00160A1E
:1001D000DA005200D900210BE000DB005000510092
:1001E0004F00DC00E10051015201AC00AE00AB0059
:1001F00000000000E2002C000100010001003302B9
:100200002600250024002D000100630023002200A9
:10021000210034020100010020001F001E00210205
:10022000000000002A0028002700E3002B001E0029
:1002300014001A0008001500E0001F00040016005A
:1002400007000900E10020001B000600190005005E
:1002500000000000E2002C0028002900010001003D
:100260000100010001000100010001000100010086
:100270000100010001000100010001000100010076
:1002800000000000010001000100010000AE00AF0D
:1002900000DA0281FFD9F1DB20A4A62EAF00A0C0B6
:1002A000D30000A1C8D30000AED580A81F408D1494
:1002B000200000000000000000002A2B28000000A1
:1002C0000000000000000000000000000029000005
:1002D00000002C1E3420212224342627252E362DE2
:1002E0003738271E1F202122232425263333362E7C
:1002F00037381F0405060708090A0B0C0D0E0F10EE
:100300001112131415161718191A1B1C1D2F313032
:10031000232D350405060708090A0B0C0D0E0F10D6
:100320001112131415161718191A1B1C1D2F313012
:10033000354C00000000000000000000000000003C
:1003400000000000000000000000000000000000AD
:100350000000000000007E0F00D4FFFFFFC7000078
:1003600000780E0363006C006100770034003400F5
:1003700000000C037900660075006B00750000003A
:100380000403090409025B00030100A0FA09040048
:1003900000010301010009211101000122440007AD
:1003A000058103080001090401000203000000099F
:1003B000211101000122220007058203200001070C
:1003C00005030320000109040200010300000009E5
:1003D0002111010001229900070584032000011268
:1003E000010002000000084659010001000102005E
:1003F000010660FF0961A1010962150026FF009551
:1004000020750881020963150026FF0095207508F4
:100410009102C005010902A10185020901A100059F
:1004200009190129081500250195087501810205A2
:1004300001093009311581257F950275088106096A
:10044000381581257F950175088106050C0A38024B
:100450001581257F950175088106C0C005010980B9
:10046000A101850319012AB700150126B7009501DE
:1004700075108100C0050C0901A101850419012A2C
:10048000A002150126A002950175108100C0050C7F
:100490000901A10185050903A10405091901292004
:1004A00015002501952075018102C0C005010906CE
:1004B000A101050719E029E7150025019508750137
:1004C00081029501750881010507190029FF1500B2
:1004D00026FF0095067508810005081901290515F4
:1004E000002501950575019102950175039101C0E3
:1004F00011241FBECFEFDAE0DEBFCDBF11E0A0E0D8
:10050000B1E0E4E6FFE502C005900D92A83CB1071A
:10051000D9F724E0A8ECB1E001C01D92A23FB207D8
:10052000E1F70E94CA140C944C2F0C940000853003
:10053000B8F46830A8F4463098F4E42FF0E096E080
:10054000699FE00DF11D112490E3899FE00DF11DDD
:100550001124EE0FFF1FE455FF4F859194910895EC
:1005600081E090E0089581E008950E94B30208952B
:1005700081E008950E94B30208950E94BA0208958E
:1005800008950E94C0020895A6E0B0E0EAECF2E00F
:100590000C94BC2E49835A839E833091CF0189816C
:1005A0009A8131111AC03E81332399F0222389F0B8
:1005B0000E946508182F682F89819A810E9441083E
:1005C00069817A81812F0E94690F2696E3E00C945D
:1005D000D82E0E945308182FF3CF0E946508698116
:1005E0007A81F1CFFC01262F408151816281738194
:1005F000848195810E94C4020895CF93DF93D82F00
:10060000C92F61E00E94F2026D2F7C2F0E94B5027B
:10061000DF91CF910895CF93DF93D82FC92F60E05A
:100620000E94F2026D2F7C2F0E94C102DF91CF91B8
:10063000089581E008950E9419030895CF93C82F6B
:100640000E9435078C2F0E941B032FEF84E39CE050
:10065000215080409040E1F700C00000CF91089504
:1006600081E00E941E030E94F723089580E00E940B
:100670001E030E94082408950F931F93CF93DF93C6
:100680008C0161E00E94F202EC01B8010E945D2041
:10069000882309F450C0B801CE010E94BD0288230E
:1006A00009F449C0B801CE010E944D17882309F40E
:1006B00042C0B801CE010E946B1F8823E1F1B8014E
:1006C000CE010E94F4198823B1F1B801CE010E9435
:1006D000C919882381F1B801CE010E94661D8823C3
:1006E00051F1B801CE010E94AC1F882321F1F8011D
:1006F0008581882381F0CA35FCE7DF0739F178F47A
:10070000C130ECE7DE07F9F0C330FCE7DF07C9F0E2
:10071000C115DC4771F0C8010E94B8020DC0CB358D
:10072000ECE7DE07B1F0CC35DC47A9F70E94880C76
:10073000F2CF0E94300380E0DF91CF911F910F91A3
:1007400008950E949A0C0E943603F5CF0E94920CE5
:10075000E2CF0E94960CDFCF0E94F8220E94D503C0
:100760000E94A51608950E94D9030E94FD220895B3
:10077000089581E008950895CF93DF93D82F0E94C4
:10078000B903C82F882319F08D2F0E94BB038C2F2B
:10079000DF91CF9108950895CF93C82F0E94B80399
:1007A0008C2F0E94BC03CF91089580E00E94CC035F
:1007B00008950E94B3210E94CC030895CF930E9414
:1007C000B321C82F8091CA018C1779F0C093CA0158
:1007D0000E9487236093CB017093CC018093CD015D
:1007E0009093CE018C2F0E94CC03CF910895ADE061
:1007F000B0E0EDEFF3E00C94BD2E488759876A878F
:100800007B878C879D8791110E94C20B1F8286E097
:10081000FE013896DE01119601900D928A95E1F75E
:100820008D8181110DC029813A814B815C816D815F
:100830007E818F810E94080B2D96E2E00C94D92EC8
:10084000CE0101960E94FD028111EDCFF5CFFC0192
:100850008481813021F4808191810E948E080895E5
:10086000662329F00E94621B0E94381C08950E9492
:10087000C01BFACFCF93C82F882399F08CEF8C0F31
:10088000813A88F48C2F0E945522882329F08C2FDE
:100890000E949A220E94360C8C2F0E9492220E9463
:1008A000360CCF91089580E28C0F883048F4C770E1
:1008B00081E001C0880FCA95EAF70E94A30BEFCF31
:1008C0008BE58C0F833038F42C2F2452330BC90165
:1008D0000E94E121E6CFE8E5EC0FEB3150F4F0E0C7
:1008E000EE0FFF1FE85CFE4F808191810E9407227E
:1008F000D8CF83E38C0F8331A0F661E08C2F0E9468
:100900003004CFCF882381F19CEF980F913A28F4DF
:100910000E949A220E94360C089590E2980F983017
:1009200050F4877091E001C0990F8A95EAF7892FFA
:100930000E94A90BEFCF9BE5980F933028F480E03D
:1009400090E00E94E121089598E5980F9B3128F4EA
:1009500080E090E00E940722089593E3980F93317E
:1009600018F460E00E94300408951F93CF93DF9342
:10097000182FEB010E943A04209739F4812F0E942E
:100980008204DF91CF911F9108958FE99FE0019735
:10099000F1F700C000002197EFCF60E070E08933ED
:1009A00011F460E570E00E94B5040895882321F0F9
:1009B0000E94A30B0E94360C0895882321F00E9408
:1009C000A90B0E94360C0895A0E0B0E0EAEEF4E036
:1009D0000C94B72E6C01D62FC72FFC011581068110
:1009E00002950F700E94980BE82E8823F9F0E12EF3
:1009F0001123E1F08C2F807F803461F080E28D0F35
:100A00008830F0F08C2F807E803221F4D230C0F01C
:100A10000023B1F08091C20282FF12C082E00E94E6
:100A20005B0C0E94980B91E0E82EE926EC2FE295F2
:100A3000EF70C03CB0F5F0E0E25BF04D0C94A02EFE
:100A4000E12CF4CF0C2F0F70C03110F00295007F15
:100A5000112399F0002359F080E28D0F883010F0B7
:100A6000D11107C0802F0E94A30B0E94360C8D2F3E
:100A700051C0802F0E94B40BF8CF8D2F0E948204AA
:100A8000002379F080E28D0F883010F0D11104C07E
:100A9000802F0E94A90B03C0802F0E94BA0B0E94D6
:100AA000360CEE2089F00E94940B80FD0DC0F601FB
:100AB00015820E948E0B0E94AF07C6010E94F306AA
:100AC0000E948E0B0E94BB07CDB7DEB7E8E00C9406
:100AD000D32EFC2FFF70FF2EC07FC03219F0F2948E
:100AE00080EFF822DD2341F0D130D1F1112309F458
:100AF00044C00023F1F0BBCF8091C20282FD15C03B
:100B0000112359F0FF2029F08F2D0E94A30B0E9482
:100B1000360C80E00E943A04C4CF80E00E94820438
:100B2000FF2009F4BECF8F2DB4CF112369F001113E
:100B300004C08F2D0E94D604B4CF013009F0B1CF8C
:100B40008F2D0E94DD0BADCF0111ABCF8F2D0E94F9
:100B5000DD048F2D0E94E90B8F2D0E94CC0BA1CFBD
:100B6000112321F0063008F09CCFE3CF053008F0C8
:100B700098CF8F2D0E94DD0494CF0023D1F3D93379
:100B800049F42FEF87EE93E0215080409040E1F749
:100B900000C000008D2F0E94820483CF8C2F869589
:100BA00086958370882369F0813009F07ACF8D2F84
:100BB0009C2F9370111102C080E090E00E940722E8
:100BC00070CF8D2F9C2F9370111102C080E090E0A8
:100BD0000E94E12166CF612F8D2F0E94300461CFEA
:100BE0008C2F8370811134C0111124C04D2F429578
:100BF00046954770440F440F8D2F8F70042E01C00F
:100C0000880F0A94EAF7D071DD2341F02FE030E03D
:100C100001C0220F4A95EAF7D22FD095C695C69506
:100C2000C3708D2BC23071F0C33079F0C13039F010
:100C30000E948B070E94B3210E94CC0332CF0E94F6
:100C40008507F8CF0E949107F5CF0E948207F2CF67
:100C5000112339F1C0FFEECF4D2F429546954770D5
:100C6000440F440F8D2F8F70042E01C0880F0A94FB
:100C7000EAF7D071DD2341F02FE030E001C0220F10
:100C80004A95EAF7D22FD095C695C695C3708D2B9D
:100C9000C23069F0C33071F0C13031F00E94DD071D
:100CA000C9CF823038F2D8CF0E94D707C3CF0E9475
:100CB000E307C0CF0E949D07BDCFCF70112339F04D
:100CC0008C2F0E94AF078D2F0E94D604B3CF8D2F9B
:100CD0000E94DD048C2F0E94BB07ACCFD23F31F1C4
:100CE00070F4D03FB9F0D13FB1F1112309F451C0F4
:100CF000002309F44BC08D2F0E943A049BCFD33FB1
:100D0000E1F0D43F21F11111F3CF011150C08C2F2C
:100D10008F71E1CF112341F0053008F08BCF8C2F7C
:100D20008F710E94CB0786CF0530F7CF8C2F8F7144
:100D30001111D1CF0E94AF077DCF112329F08C2F45
:100D40008F710E94A60776CF0E94A20773CF809171
:100D5000C20282FD06C08C2F8F71112309F4BBCF14
:100D6000E9CF112349F0CF718C2F0E94AF0763E0C8
:100D70008C2F0E943D0C5ECF81E00E945B0C023004
:100D800008F458CF82E00E945B0C54CF8C2F8F71F7
:100D9000D1CF002309F4BBCFD93349F4EFEFF7EEFD
:100DA00023E0E150F0402040E1F700C000008D2F2B
:100DB0000E9482043FCF0F931F93CF93DF93EC01E8
:100DC000688179818D810E949B088C010E94E907CE
:100DD0000E948107B801CE010E94E404DF91CF9107
:100DE0001F910F910895CF93DF93EC018C8188239D
:100DF00099F0CE010E943C03811111C00E94980B12
:100E0000882351F08D81882339F08091C20282FFBE
:100E100003C082E00E945B0CDF91CF910895CE0168
:100E20000E94DB06CE010E940B03F6CF882321F03F
:100E30000E94BA0B0E94360C089580E090E00E9458
:100E4000E12180E090E00E9407220E94C20B0E94F4
:100E5000360C0E94551C0E94381C0E94D81D089513
:100E60000E94A2220E941D0708950E94B10B0E94B9
:100E700030070895282F92959F70963091F060F476
:100E8000925F9F70923030F481E0203F79F030F42F
:100E9000283E30F080E008959A5FF3CF243FD1F7E9
:100EA000089581E0283EE0F3213FF9CF0895FC0149
:100EB0008481882339F0808191810E948E080E946C
:100EC0003A07089580E00895A6E0B0E0EAE6F7E08A
:100ED0000C94BD2E2696E2E00C94D92EA7E0B0E04B
:100EE000E4E7F7E00C94BD2E2796E2E00C94D92EAF
:100EF00008950E94780708950E9479078093E3017E
:100F0000089508950E947C0708959091E301892B2C
:100F10000E947C0708959091E30189230E947C0739
:100F200008959091E30189270E947C0708950E940B
:100F3000780708950E94970708950E949A07809362
:100F4000E201089580E00E949D07089591E001C0AC
:100F5000990F8A95EAF7892F0E949D07089521E04D
:100F600030E001C0220F8A95EAF78091E201822BDE
:100F70000E949D07089521E030E0A90102C0440FBE
:100F8000551F8A95E2F7CA0180959091E201892365
:100F90000E949D07089521E030E001C0220F8A954C
:100FA000EAF78091E20182270E949D0708959091BF
:100FB000E201892B0E949D0708959091E201892307
:100FC0000E949D0708959091E20189270E949D0744
:100FD000089508959B01677091E001C0990F6A958B
:100FE000EAF763E0369527956A95E1F7B901660F50
:100FF000771F260F371FFA01E20FF31F40E050E082
:10100000682F70E08191DF0111979B01042E02C0CF
:10101000369527950A94E2F72170219528272923F0
:1010200028272C934F5F5F4F4330510559F70895A0
:101030009C01A82FA77083E0369527958A95E1F744
:10104000C901880F991F820F931FFB01E80FF91F39
:1010500040E050E080E0219130E00A2E02C0369559
:1010600027950A94E2F721703327042E01C0220F3E
:101070000A94EAF7822B4F5F5F4F4330510559F7CF
:101080000895282F862F983068F4263058F4622F60
:1010900070E026E0929F600D711D112440ED51E03B
:1010A0000E94EA070895292F983068F4863058F492
:1010B00090E060ED71E036E0239F800D911D1124DA
:1010C0000E941808089580E00895A0E0B0E0EBE6E3
:1010D000F8E00C94B82E7C010091E2018091E301CC
:1010E000082BC5E0D0E010E0C8010C2E02C0959599
:1010F00087950A94E2F780FD09C02197A8F7D12CC3
:101100008D2DCDB7DEB7E7E00C94D42EDC2EB701E1
:101110008C2F0E94750F019781F3F2CFCF93DF934D
:10112000D82FC92F0E9465086D2F7C2F0E94750F44
:10113000DF91CF9108951F93CF93DF93162FD72F71
:101140009091CF01992341F0862F972F0E948E080E
:10115000DF91CF911F910895882381F0862F972FDB
:101160000E946508C82F682F812F9D2F0E9441087B
:10117000612F7D2F8C2F0E94750FEACF862F972F1E
:101180000E945308C82FF4CFE1E0F0E0DF0102C075
:10119000AA0FBB1F6A95E2F7BD01DF0102C0AA0FCB
:1011A000BB1F4A95E2F76A2B01C0EE0F2A95EAF7BA
:1011B000962F9823961302C08E2B0895E0958E23C8
:1011C0000895242F462F682F8091E2010E94C408C1
:1011D0000E949D0708950F931F93CF93E091E40120
:1011E000C7E08091E5018E1304C0CF911F910F914C
:1011F00008950E2F10E0CE9FF0011124EA51FE4F0A
:1012000020813181428153816481758186810E9470
:101210006E07F8013196E770E4CF20911E023091FD
:101220001F02409120025091210260912202709190
:101230002302809124020E946E0708958091240267
:10124000803178F480912302882359F0E091E40101
:101250002091E50130911F0240911E0257E02E13AC
:1012600001C008956E2F70E05E9FF0011124DF0130
:10127000AA51BE4F14968C911497882361F1119650
:101280008C911197831327C08C91841324C01596D9
:101290008C91159781111FC012968D919C91A091F0
:1012A0002002B09121028A1B9B0B883C910598F487
:1012B000809124028F70806180932402E451FE4F5C
:1012C00080818F70806180838EE192E00E94F306BE
:1012D0000E94EB080895FB013196E770C0CFE091C2
:1012E000E4019091E50127E0E91302C080E0089550
:1012F000AE2FB0E02E9FF0011124EA51FE4F318154
:10130000361306C03081381303C03581341304C04E
:10131000FD013196E770E8CF81E008958F929F92AA
:10132000AF92BF92DF92EF92FF920F931F93CF93F2
:10133000DF93CDB7DEB72D970FB6F894DEBF0FBEA3
:10134000CDBF8C0186E0F801DE01189601900D9268
:101350008A95E1F7F801E080F580A280B38084816E
:101360009EE1892E92E0992E9091220291111BC04C
:10137000882309F4FCC0FF2009F43DC1C8010E9484
:101380005707882309F437C187E0F801D401019099
:101390000D928A95E1F7C4010E9427040E941E095C
:1013A0000E940D09E4C0D0902302209120023091C8
:1013B0002102A501421B530BDD2009F4DBC0483C90
:1013C000510508F0A6C0882309F4D1C090911F02EE
:1013D000918080912402803108F06BC0991228C05E
:1013E00090911E029E1124C0F1105DC08F7080612B
:1013F000809324020E940D098EE192E00E94F30680
:1014000080912402F8018683F12C8F2D2D960FB642
:10141000F894DEBF0FBECDBFDF91CF911F910F912A
:10142000FF90EF90DF90BF90AF909F908F900895C6
:10143000F11039C040E0692D8E2D0E946F0940E007
:10144000692D8E2D0E946F09F82E8111DDCF8885C0
:1014500099850E948E08292F22952F70903450F480
:101460009F70223080F0992399F0F8019681903195
:1014700078F4CBCF2A5F2F70223078F0C8010E9419
:10148000F306FD2CC2CF992319F0882309F4BDCFB0
:10149000805E883008F4B9CFF1CF803F08F4B5CF33
:1014A000815F8230F7CF8091240281608093240293
:1014B000ABCF991207C090911E029E1103C0FF206E
:1014C00009F479C0C8010E945707882309F493C022
:1014D000FF2009F490C080912402803288F020918E
:1014E0001E0230911F023A832983BC82AB82909105
:1014F00022029D831E828F83CE0101960E94F306F5
:1015000087E0F801AEE1B2E001900D928A95E1F733
:1015100045CF909124029031A0F4488559856A8581
:101520007B858C859D850E9464078EE192E00E94F8
:10153000F30687E0F40111928A95E9F70E940D09FC
:1015400063CF8823A1F020911F0281812813BACF95
:1015500080911E028E11B6CFF110B4CF9683C801D0
:101560000E94F30687E0F40111928A95E9F7FF24BF
:10157000F3944BCF483C510508F041C08823B9F3A0
:10158000FF20C9F190911F02818198132AC0809198
:101590001E028E1126C08091240280FD19C0803168
:1015A000B8F08683807F803F39F08681982F907FC6
:1015B000905F8F70892B8683C8010E94F30687E0B5
:1015C000F801AEE1B2E001900D928A95E1F7E8CE24
:1015D00087E0F801AEE1B2E001900D928A95E1F763
:1015E000C6CFC8010E94570781118ACF809124027B
:1015F000816080932402C8010E94F306B8CF488519
:1016000059856A857B858C859D850E94640791CF6D
:10161000AEE0B0E0EEE0FBE00C94BC2E288739870A
:101620004A875B876C877D878E87CE0108960E94EC
:101630008E098823B1F06C85662341F028853985B1
:101640004A855B857D858E850E946E0717E08091B7
:10165000E4019091E50189133EC02E96E3E00C94DD
:10166000D82E87E0FE013896DE01119601900D928A
:101670008A95E1F72091E5014091E4018C8588236A
:1016800029F330E0C90101968770992750E084174B
:10169000950799F097E0929FD001939FB00D112488
:1016A000AA51BE4FFE01319601900D929A95E1F735
:1016B0008093E5010E94EB08C9CF0E943507109284
:1016C000E5011092E40187E0EEE1F2E0DF011D9216
:1016D0008A95E9F7BBCF189FC00111248A519E4F0C
:1016E0000E948E09882309F4B8CFE091E4011E9F7F
:1016F000F0011124EA51FE4F208131814281538152
:101700006481758186810E946E078091E40190E07A
:101710000196877099278093E40199CF80912D02DB
:10172000869586958695089580912D0287700895F7
:1017300090912D02977081E0911101C080E0089591
:1017400080913902089590913902982B9093390233
:101750000895982F909580913902892380933902BA
:10176000089510923902089590913802982B909321
:1017700038020895982F909580913802892380939C
:101780003802089510923802089580912F0208952A
:1017900008950E94C80B089590912E02292F2823A6
:1017A000222331F08095892380932E020E94C90B59
:1017B000089508950E94D90B089590912F02292F22
:1017C0002823281729F0982B90932F020E94DA0BD8
:1017D000089590912F02292F2823222331F08095FC
:1017E000892380932F020E94DA0B089580912F02A3
:1017F000882329F010922F0280E00E94DA0B0895CE
:101800000F931F93CF93DF9300910001109101017B
:10181000C091390280913802C82BD0912F02DD236C
:1018200031F00E94412281110E94F60BCD2BF8016C
:10183000C083C0910001D091010148E050E065E211
:1018400072E0CE010E94E42E892B59F088E0FE015F
:10185000A5E2B2E001900D928A95E1F7CE010E94D7
:10186000C721DF91CF911F910F9108950E94000C25
:10187000089508950E94390C08959091C20292FF34
:1018800011C098E0899F90011124622B60932D0272
:101890000E94AF0780912D028695869586950E94BD
:1018A0003A0C08950E94AF07089510922D0280E02F
:1018B0000E943A0C089590912D028095892380937F
:1018C0002D02282F277021110DC0891759F09091F2
:1018D000C20292FF07C08695869586950E94BB0737
:1018E0000E94550C08959091C20292FB222720F984
:1018F000281769F080FB92F99093C2028091C1028F
:101900009091C2020E94BC0C82E00E945B0C089580
:101910008091C20282FB882780F991E089270E948A
:10192000730C089581E00E94730C089580E00E947A
:10193000730C08956FEF7FEF80E090E00E94362FE8
:10194000089580E090E00E94022F863E9E4F19F499
:101950000E94E71F089580E0089582E090E00E94D1
:10196000FA2E089583E090E00E94FA2E089584E014
:1019700090E00E94022F0895BC0184E090E00E9454
:10198000362F0895AB01BC018FE090E00E942A2F12
:101990000895AB01BC0183E190E00E942A2F0895D5
:1019A00060E070E0CB010E94C90C089560E070E037
:1019B000CB010E94C20C0E94D00C0895A8E0B0E0B8
:1019C000E4EEFCE00C94BD2E66EE7EEF80E090E04D
:1019D0000E94362F60E082E090E00E94182F81E0A4
:1019E0008093E30161E083E090E00E94182F60E0C3
:1019F00074E184E090E00E94362F60E086E090E0A1
:101A00000E94182F60E087E090E00E94182F40E0CD
:101A100050E0BA0188E090E00E942A2F60E084E262
:101A200090E00E94182F60E087E190E00E94182F5C
:101A300060E08CE090E00E94182F60E08DE090E084
:101A40000E94182F19821A821B821C821D821E82FC
:101A50001F82188648E050E068E170E0CE010196F0
:101A60000E94082F40E050E0BA0180E290E00E941E
:101A70002A2F80E00E9400200E943F200E94D60C66
:101A80002896E2E00C94D92E0E94DE0C0895682F6F
:101A90008EE090E00E94182F0895A6E0B0E0E3E504
:101AA000FDE00C94BB2E0E947B238C0180913A02B6
:101AB00090913B028017910779F019821A820E9457
:101AC0007B23BC0149815A8180E090E00E94F703AA
:101AD00010933B0200933A022696E4E00C94D72E32
:101AE0000E94A310609348027093490280934A02B7
:101AF00090934B0260934402709345028093460298
:101B0000909347020895089508950E94830D0895C3
:101B100008950E94880D089581E0089586ED90E172
:101B20000E94D7140E94840D0E94850D08950E9482
:101B30009E120895089508950E949A0D0E949B0D8B
:101B400008950E94A10C811102C00E94440D0E94C0
:101B5000AD0C80934C020E94B70C9093C20280930C
:101B6000C1020E942B170E94B20C0E948207809132
:101B7000E2010E949A0708950E9472230E946D104C
:101B80000E944F200E94A4120E94EB110E94A10DFE
:101B90000E94CB030E941C1880E00E9424150E9422
:101BA000B6120E94890D08950E949E1281110E9412
:101BB00000180895A6E0B0E0E0EEFDE00C94B42E2D
:101BC0000E948C0D81110EC00E944D0D0E94D40DFB
:101BD0000E94C5160E94761C0E94DE032696EBE04A
:101BE0000C94D02E0E940F128CE3A82E82E0B82E07
:101BF000750110E0F70101917F01812F0E94E01033
:101C00001F5F183009F449C00817A1F380914C02F6
:101C100081FD0E94E6100E94970DC82E00E09924D5
:101C20009394802F0E94E010182FF50191915F018D
:101C3000891739F1D82ED926F12CEE24E3948D2D75
:101C40008E218823B1F0CC20A1F0F9820A830E9472
:101C50007B239C838B839D8291E0812F8E21811138
:101C600001C090E049815A816B817C818D810E9405
:101C7000F703F394EE0CF6E0FF12E1CFF501319794
:101C800010830F5F083069F60E94700D0E94D40D1A
:101C90000E94C5160E948E159DCF0813B7CF94CF12
:101CA0001F93CF93DF930E947A0FEC01811522E5F9
:101CB000920708F053C0811540E5940708F0DDC095
:101CC000803E9105F8F48D3C910508F0AEC0883A4D
:101CD000910580F4853A910508F099C0813091050D
:101CE00021F00497813A910550F4CE01DF91CF9114
:101CF0001F910895885A91094B9708F48BC0C0E052
:101D0000D0E0F3CF811550E49507F8F4C11580E2D7
:101D1000D80708F0CBC0C83ED10538F3CE019A955C
:101D200081159F4160F78D2F0E941E10182FCE0144
:101D300099270E947A0F212F30E0322F2227E901C4
:101D4000CC27DF71C82BD92BD0CF99270E947A0FCF
:101D5000CC27DF70C82BD92BD06AC7CF803842E59B
:101D60009407C8F5803652E5950708F067C0C0347F
:101D700082E5D807B0F08C2F86958695877020E293
:101D8000829FC0011124C37021E030E0A90102C08C
:101D9000440F551FCA95E2F7EA01C82BD92BDC681E
:101DA000A4CFC03252E5D50708F041C08C2F8695EC
:101DB000869520E2829FC0011124C37021E030E0AB
:101DC000A90102C0440F551FCA95E2F7EA01C82BCA
:101DD000D92BDD688ACF803C52E5950760F48F717E
:101DE000C03AD24508F03FC090E0982F8827EC0118
:101DF000C46FD06A7ACF805C9245809708F07FCF1D
:101E0000DC2FCC27CC27DF71C06FD06A6ECFA497B0
:101E1000D0646BCFC85AD0E0CC0FDD1FC259DE4F63
:101E20000990D881C02DD46460CFD0655ECFCF71CA
:101E3000D0E0DC2FCC27C16FD06A57CF869586952E
:101E4000877020E2829FC0011124C37021E030E03E
:101E5000A90102C0440F551FCA95E2F7EA01C82B39
:101E6000D92BDA6842CF0E941E10C82FD0E0DC2F99
:101E7000CC27CC27DF71D06238CF8F710E941E1023
:101E800065E0D695C7956A95E1F7CF70D0E0DC2F75
:101E9000CC27282F30E084FF05C054E0220F331FE9
:101EA0005A95E1F7C22BD32BD0691FCF8D2F8F719D
:101EB0000E941E10182FCE0199270E947A0F212F01
:101EC00030E0322F222722273F71282B392BE901BE
:101ED000D2CF462F672F783028F4463018F40E946E
:101EE000E718089580E090E008950E94690F0E942D
:101EF000500E0895803E9105D1F1C8F481339105CB
:101F000009F47FC048F48932910509F46FC08A3220
:101F1000910509F47DC0089589339105E1F0823877
:101F20009105C9F08533910509F45BC00895843E9D
:101F30009105D1F148F4823E910531F1833E91053E
:101F400041F181EE90E00895863E9105C1F1873E12
:101F50009105E1F108952091C1022370211165C01E
:101F60002091C20223FF14C089E290E008952091DD
:101F7000C10220FD43C03091C20230FF09C024FFDE
:101F80004EC080E090E008952091C10222FDF7CF7D
:101F900008952091C10222FD45C03091C20230FD5A
:101FA00044C024FFF5CFEDCF2091C20221FFF0CF36
:101FB0008091C10284FDE5CF87EE90E008952091E5
:101FC000C10223FFE5CF24FDDCCFF6CF2091C10273
:101FD00023FD2EC03091C20231FFE3CF84EE90E0AA
:101FE00008952091C10225FFD3CFBECF2091C10219
:101FF00025FD21C02091C20223FFCACF89E390E0D2
:1020000008952091C10226FFC3CF8AE290E008958F
:102010002091C10226FFBCCF81E390E0089583EEBA
:1020200090E0089582EE90E0089580EE90E00895AB
:1020300086EE90E0089585E390E0AACF9091C102EA
:1020400092FF10C041E0282F2471243009F040E0B5
:1020500031E0282F2871283009F030E0431711F0C3
:102060002CE0822793FF10C041E0282F24712431F7
:1020700009F040E031E0282F2871283109F030E0E4
:10208000431711F02CE082273091C20230FF10C0BC
:1020900051E0282F2171213009F050E041E0282F34
:1020A0002871283009F040E0541711F029E0822708
:1020B00031FF10C041E0282F2171213109F040E0AB
:1020C00031E0282F2871283109F030E0431711F052
:1020D00029E0822794FD877E08951092C302109212
:1020E000C4021092C5021092C6020895CF92DF92E8
:1020F000EF92FF92CF93DF9300D000D0CDB7DEB741
:102100006B017C010E949E12811112C00E948723E4
:1021100069837A838B839C83C61AD70AE80AF90AF3
:10212000C092C302D092C402E092C502F092C602ED
:102130000F900F900F900F90DF91CF91FF90EF9045
:10214000DF90CF900895A4E0B0E0E9EAF0E10C94CC
:10215000BD2E0E949E12882371F00E9487236983FE
:102160007A838B839C8369817A818B819C8124967D
:10217000E2E00C94D92E0E94872369837A838B83B3
:102180009C838091C3029091C402A091C502B0913A
:10219000C60229813A814B815C81280F391F4A1F71
:1021A0005B1F29833A834B835C83DDCF80E00895F6
:1021B00008950E94D810089508950E94DC10089593
:1021C000E82FF0E0E053FD4F80810895089580EA04
:1021D0008A95F1F7089500C008950E94E7100895C8
:1021E00008950E94F0100895EF92FF921F93CF93ED
:1021F000DF9300D000D0CDB7DEB70E949E12182F1B
:102200006091D802882309F447C01A8219821C827F
:102210001B82862F90E09E012F5F3F4F7901B9010D
:1022200080539D4F0E94C4128823E9F08091C70219
:1022300090E044E050E0B70180539D4F0E94E42EAF
:1022400021E020934D02892BC9F410E00E94DD109B
:10225000812F0F900F900F900F90DF91CF911F91D2
:10226000FF90EF90089580914D02882371F384E0F0
:10227000F70111928A95E9F710924D02E091C70299
:10228000F0E0E053FD4F89819A81AB81BC8180836E
:102290009183A283B383DACF70E060537D4F809146
:1022A000C70290E080539D4F0E944D130E94F11091
:1022B000CFCFF894E82FE295EF70F0E041A18F7056
:1022C00021E030E0B90102C0660F771F8A95E2F77E
:1022D000CB01962F9095942391A392A1892B82A351
:1022E00078940895CF93DF9384E90E94591186E68C
:1022F0000E94591187E90E94591186EC0E945911D8
:10230000C4EAD1E089918F3F11F00E94591181E018
:10231000CA3AD807B9F7DF91CF910895A0E0B0E0AD
:10232000E4E9F1E10C94B72EEC01D62E062F10E073
:10233000C80186559E4F7C01FC0180818F3F09F4C6
:1023400045C0F894E82FE295EF70F0E091A18F700E
:1023500021E030E001C0220F8A95EAF7892F822B15
:1023600081A382A12095282322A378940E94EB10B8
:10237000E4EAF1E091E0C12C81918F3F81F0A82F38
:10238000A295AF70A05EB0E02C9130E08F7002C0DB
:10239000359527958A95E2F72170892F211180E0E4
:1023A000C82A990F81E0EA3AF80731F7F7018081EE
:1023B0008F3F11F00E94591161E0C11001C060E02F
:1023C0008D2D0E94ED10C00FD11FC882CDB7DEB792
:1023D000E8E00C94D32E809102018091020191E0FB
:1023E0008927880F880F8093D80294E0981B9093D8
:1023F000C7020E94721188E0E0EDF2E0DF01982F41
:102400001D929A95E9F7E8ECF2E0DF011D928A95BA
:10241000E9F784E00E9450120E94D9100895A8E0C4
:10242000B0E0E5E1F2E10C94BA2E1A821982FE01C5
:10243000339686E0DF011D928A95E9F7F12C8E0133
:102440000F5F1F4F6F2DC8010E948E11F394B4E0EF
:10245000FB12F8CF48E050E0B80188EC92E00E940F
:10246000E42E21E0892B99F420E06091D80270E0FD
:1024700060537D4F44E088EC92E00E945112182F87
:102480000E94F410812B2896E5E00C94D62E88E06B
:10249000F801A8ECB2E001900D928A95E1F7E5CF42
:1024A0000895A0E0B0E0E7E5F2E10C94B72ED82E55
:1024B000E92EF62ED72F042FC22F222379F081E0A8
:1024C000809350020E947B2390934F0280934E0290
:1024D00080E0CDB7DEB7E8E00C94D32EC090500278
:1024E000CC20B1F380914E0290914F020E94A42320
:1024F000059770F310E0A8016D2D7E2D8F2D9D2F77
:102500000E94E42E892B41F0A8016D2D7E2D8F2D88
:102510009D2F0E94F12ECC2D109250028C2FD9CFDE
:10252000CF930E946B2EC82F811102C00E94662E8D
:102530008C2FCF9108958091540208958091530279
:1025400008950E949E1208950E9490128093530253
:102550000E94A112809354020E949B128093020158
:102560000E949E1281110E94FA1208950E949E12EA
:10257000811102C00E94FD12089581E090915502E0
:102580009A3008F080E008950F931F93CF93DF9364
:10259000EC01162F072F809155028A3090F4612F9D
:1025A000702FCE010E944A13811121C080915502E3
:1025B0008F3FB1F40E947B2390935202809351028B
:1025C00009C080915102909152020E94A423843F3D
:1025D000914028F780E0DF91CF911F910F910895EE
:1025E0008F5F809355028A3028F781E0F4CF1092F4
:1025F0005502FBCF0E94E42508950E94E725089527
:10260000A0E0B0E0E6E0F3E10C94B72EFA01690136
:102610007801C82F880FDD0B3097B1F0DE0193E011
:10262000AA0FBB1F9A95E1F7AD5FBE4F11968D9132
:102630009C9112978A5A9D4F4C9150E0E417F507F0
:1026400008F4AF010E94F12ECE010E94D226182F6D
:102650008823D1F0E114F104B9F083E0CC0FDD1F41
:102660008A95E1F7FE01ED5FFE4F438150E0E416ED
:10267000F50608F4A701CD5FDE4F6C817D816A5AB3
:102680007D4FC6010E94F12E812FCDB7DEB7E8E065
:102690000C94D32E0E946D1408950E948614089500
:1026A000A8E0B0E0E6E5F3E10C94BB2E80916B026C
:1026B00090916C02A0916D02B0916E02BC01CD01AF
:1026C0000E94B32311E0643671058105910520F164
:1026D0000E94A310DC01CB010296A11DB11D8983CC
:1026E0009A83AB83BC8300E010E020E030E044E05C
:1026F00050E0BE016F5F7F4F82E00E940013182FF1
:10270000882351F00E94872360936B0270936C02C0
:1027100080936D0290936E02812F2896E4E00C94D2
:10272000D72E8F929F92AF92BF92CF92DF92FF925D
:102730000F931F93CF93DF93CDB7DEB729970FB6D3
:10274000F894DEBF0FBECDBF6B01A090AE01B0907C
:10275000AF0101E010E09E012B5F3F4F40E050E0F1
:1027600060E070E080E00E940013F82E882309F4F6
:1027700059C045018FEF881A980A8091670290919D
:102780006802A0916902B0916A02BC01CD010E9469
:10279000B3236E837F8388879987643671058105AB
:1027A000910570F104E010E09E012F5F3F4F40E083
:1027B00050E060E070E081E00E940013182F64E0B8
:1027C00070E0C4010E941D189D8198132BC0112335
:1027D00049F10E9487236093670270936802809397
:1027E000690290936A0289819A81AB81BC8180934E
:1027F000630290936402A0936502B093660213C0D3
:1028000064E070E0C4010E941D189D818913CACF45
:10281000F50181819281A381B48189839A83AB83FD
:10282000BC83E1CFF12C8091630290916402A0916E
:102830006502B0916602F60180839183A283B3831F
:102840008F2D29960FB6F894DEBF0FBECDBFDF9156
:10285000CF911F910F91FF90DF90CF90BF90AF90DD
:102860009F908F900895A0E0B0E0E9E3F4E10C942C
:10287000B52EF82EE92EB62EA72E8A010E94BD1283
:10288000CC24C394D12C882319F08AE0C82ED12CF3
:10289000C1E0D0E06B2D7A2D8F2D9E2DF80109958A
:1028A000811116C02196CC16DD0694F0CC9FC00194
:1028B000CD9F900D900D112420E030E045E34A9526
:1028C000F1F700002F5F3F4F28173907B9F7E2CF24
:1028D000CDB7DEB7EAE00C94D12E0F931F93CF93C0
:1028E000DF93D82FC92F8B0141E953E10E943314A4
:1028F000882339F040E553E1B8018D2F9C2F0E94C9
:102900003314DF91CF911F910F9108950F931F936F
:10291000CF93DF93FB01C091AE01D091AF01CE0107
:10292000019624E0DC0101900D922A95E1F764E024
:1029300070E00E941D1888836D817E818F8198854B
:1029400000915F0210916002209161023091620259
:10295000601771078207930751F060935F027093CD
:10296000600280936102909362020E947610DF9170
:10297000CF911F910F9108950E94C0280E94BC0D15
:102980000E94CD2808950E94D2280E94DA0D0E944C
:10299000EC2808950E9414230E94A6280E948E0D00
:1029A0000E94BC140E94C3140E949C0DFBCF909304
:1029B000C9018093C8010895AB0124E630E0BC0151
:1029C00088E70E949E249C0181E0232B09F080E08F
:1029D0000895AB0124E630E0BC0188E70E94E924B9
:1029E0009C0181E0232B09F080E008950F931F9351
:1029F000AC019B0104E610E060E488E70E94362504
:102A00009C0181E0232B09F080E01F910F91089534
:102A10000E946824089508950E940B150895E9ED19
:102A2000F2E080E092E0DF019C011D9221503040F5
:102A3000E1F7F093E004E093DF048FEF9FEF9093D2
:102A40009502809394020895A5E0B0E0EAE2F5E1F2
:102A50000C94BD2E0E940B150E940C1590E280FF75
:102A600090E88093900290938F020E9408156BE08B
:102A700070E087EA92E00E94E914811106C01D828D
:102A80008D812596E2E00C94D92E8091900265E02C
:102A900070E081FD29C082EA92E00E94E914882357
:102AA00071F36DE070E080E992E00E94E9148D839B
:102AB000882329F30E948723DC01CB01805A9541AA
:102AC000AF4FBF4F8093DB049093DC04A093DD04F1
:102AD000B093DE040E940F1581E0809393028093EF
:102AE000920210929102CCCF8DE992E0D6CF209144
:102AF0008F0236E0839FC0011124269F800D911D17
:102B00001124811522E0920714F080E090E08752B2
:102B10009D4F9093E0048093DF040895A4E0B0E01B
:102B2000E4E9F5E10C94BD2E80919302811106C079
:102B3000809192022496E2E00C94D92E0E94872381
:102B4000DC01CB01805A9541AF4FBF4F8093DB042E
:102B50009093DC04A093DD04B093DE048091920294
:102B60008111E6CF62E070E08EE892E00E94E91405
:102B70008823F1F281E080939202DACFA4E0B0E002
:102B8000E4ECF5E10C94AD2E8C838091940290914D
:102B90009502892BE9F0809193028823C9F08091F6
:102BA0009102811115C00E948E1510E01B824424F1
:102BB0004394512C00E267E0F62E809194029091AC
:102BC0009502009729F0112351F0FC81F11107C003
:102BD0002496E2E10C94C92E2B812F5F2B833B813D
:102BE000C32ED12C520102C0AA0CBB1C3A95E2F7AD
:102BF000950128233923232B79F38091900280FDBE
:102C00003DC096013695279536952795922F8B8155
:102C10008295880F80763FE1380F80931D012093C5
:102C2000200130931E019093210167E070E08BE159
:102C300091E00E94DC14882359F2C60125E0880F38
:102C4000991F2A95E1F72091900220FD20C060E2B3
:102C500070E087529D4F0E94F614882309F4B8CF84
:102C6000A094B09480919402909195028A219B2126
:102C700090939502809394021F5F9FCF8B81880F62
:102C8000880F880F37E0380F20E093E0C6CFAFE61B
:102C9000B2E0E02F1D92EA95E9F724EB31E03A83A8
:102CA000298360EB71E0E981FA81A191FA83E983DC
:102CB000FB012191BF01280F392F311DA901475276
:102CC0005D4F1A01EA2FF0E0E159FD4F20E030E0BE
:102CD0006F2C621A842C022E01C0880C0A94EAF729
:102CE0006101912CD601ED906D01E820462D491926
:102CF000477050E0BE2D042E01C0BB0F0A94EAF7C6
:102D00007B2E5195419551094770552701C0E69496
:102D10004A95EAF7EB2A4081E42AE082939448E05E
:102D20009412E0CF2F5F3F4F31962830310581F666
:102D3000A8EBB1E0E981FA81AE17BF0709F0B3CF84
:102D400060E270E08FE692E086CF809192029091EF
:102D50009302911103C091E089270895882369F0B7
:102D600062E070E08CE892E00E94E914811103C0F7
:102D70008091920208951092920280919202EBCF7C
:102D800081E008950E94C0160895A4E0B0E0EBEC45
:102D9000F6E10C94BD2E809193028823D1F18091AD
:102DA000D9049091DA040E94A423C29760F00E9493
:102DB0007B239093DA048093D90460E080E00E9442
:102DC00077150E94C21680E00E94BE158091920283
:102DD0008823F9F00E94872369837A838B839C83FD
:102DE0008091DB049091DC04A091DD04B091DE04BD
:102DF00029813A814B815C81281B390B4A0B5B0B83
:102E0000DA01C9018F3F9F4FAF4FBF4710F40E94B7
:102E1000A5162496E2E00C94D92E0E949A0C0895EF
:102E200080E00E94E010817008950E940F122FEF41
:102E300086E791E0215080409040E1F700C000001B
:102E40000E940F120E941017882321F00E940D1774
:102E50000E94F72308950E94151708959C018D3252
:102E60009105B9F080F48832910548F44E9748F402
:102E7000245031092A31310560F080E008958A97A5
:102E8000E1F781E008958C349105D9F32D32324079
:102E9000F7CF82E00E94B40BF4CFEF92FF920F9332
:102EA0001F93CF93DF93EC017B0183379C4759F449
:102EB000FB01858181110E94121880E0CDB7DEB739
:102EC000E6E00C94D52E0E94A00B182F0E94C50B93
:102ED000082F0E94DF17882371F10E94D617F7018F
:102EE0008581882341F1102B1D7911114EC0C11528
:102EF000F0E5DF0798F4C11520E4D20708F04DC0D3
:102F0000C63ED105C1F0CE01905281159042D8F451
:102F1000F7018681803170F1DD2715C0C43BF2E5F1
:102F2000DF0749F0D0F4C03482E5D80730F4C1158A
:102F3000E2E5DE0740F081E0C1CFCE018056924548
:102F400080349105C0F30E94C20BCE010E942E175F
:102F50008823D9F00E94360CEECFC03EF2E5DF07A1
:102F600020F4CF3B22E5D207E5CFCE0187579C471F
:102F70000197E8CF8D2F8F718431E9F248F48230C8
:102F800091F0C5EED0E08231F1F20E94F317D3CF79
:102F9000C6EED2E18631B9F2F8CFF70186818031F1
:102FA00008F0BACFC8CFC1EED0E0CDCF0E947B23CE
:102FB00088579C4E90939702809396020895809133
:102FC0009802089508958091980281110BC00E9483
:102FD000B10B0E94F60B0E94D61781E080939802F5
:102FE0000E94E217089580919802882341F082E2BE
:102FF0000E9416071092980280E00E94E21708953E
:1030000080919802882369F00E947B232091960288
:1030100030919702821B930B8F3F9F4710F40E94C1
:10302000F317089580919802882319F00E94F317EE
:1030300008950E94E31708950895FC01680F791F11
:103040008FEF91E3E617F70709F40895219182279E
:1030500028E030E087FF08C0880F89272150310918
:1030600021153105B9F7EECF880FF8CF86E0089526
:1030700050E0440F551F9CE0699F400D511D1124E5
:1030800090E6899F400D511D1124CA01899608952B
:103090000F931F93CF93DF938630C8F46830B8F452
:1030A0004630A8F40E9438188C010E94FA2EC82FCE
:1030B000D0E0DC2FCC27C80101960E94FA2E9E0199
:1030C000282BC901DF91CF911F910F91089580E0C6
:1030D00090E0F8CF0F931F93CF93DF93122F032F1E
:1030E000863078F4683068F4463058F40E94381816
:1030F000EC01602F0E94182F612FCE0101960E94D3
:10310000182FDF91CF911F910F9108951F93CF93A7
:10311000DF93D0E0C0E011C0412F6C2F8D2F0E94B3
:1031200097029C01412F6C2F8D2F0E946A181F5F00
:10313000163091F7CF5FC83011F010E0EDCFDF5FB0
:10314000D63041F7DF91CF911F910895EF92FF9212
:103150000F931F93CF93DF938C01EA017A01E60E60
:10316000F71ECE15DF0529F4CDB7DEB7E6E00C94E7
:10317000D52E003482E0180740F4C80189960E94D9
:10318000FA2E89930F5F1F4FECCF80E0FACFEF92BA
:10319000FF920F931F93CF93DF938C01EA017A0183
:1031A000E60EF71ECE15DF0529F4CDB7DEB7E6E053
:1031B0000C94D52E003482E0180728F46881C801E9
:1031C00089960E94182F21960F5F1F4FEBCF8630F4
:1031D00038F4683028F4463018F40E9448180895EE
:1031E00080E090E0089580E1089587E991E00895F6
:1031F000EF92FF920F931F93CF93DF938C01EA011D
:103200007A01E60EF71ECE15DF0529F4CDB7DEB73D
:10321000E6E00C94D52E073981E0180748F4C80180
:1032200087599D4F0E94FA2E89930F5F1F4FEBCF56
:1032300080E0FACFEF92FF920F931F93CF93DF932B
:103240008C01EA017A01E60EF71ECE15DF0529F49E
:10325000CDB7DEB7E6E00C94D52E073981E018072C
:1032600030F46881C80187599D4F0E94182F21961C
:103270000F5F1F4FEACFCF93DF93C9E6D2E060E044
:10328000CE010E94182F2196C11584E0D807B9F706
:10329000DF91CF910895A8E0B0E0E1E5F9E10C9469
:1032A000B72EF82E2FE0281708F46FC08FEF93E0A9
:1032B0000E94FA2E811169C009E612E0F11038C0AF
:1032C0001A821982FE01339686E0DF011D928A95EB
:1032D000E9F76801BFEFCB1ADB0AC8010E94FA2E9A
:1032E00089831A82882309F450C08130D1F478018F
:1032F00022E0E20EF11CC6010E94FA2E8A83882386
:1033000009F443C09FEF980F9330F8F4680183E00D
:10331000C80ED11CC7010E94FA2E8B838823A9F105
:103320001C8260E0CE0101960E94911E8601D1CFE1
:10333000011584E0180749F1C8010E94FA2E0F5FB9
:103340001F4F8111F5CFFA94B9CF8430B9F402E060
:1033500010E0C701AFEFEA1AFA0A0E94FA2EE1E084
:10336000F0E0EC0FFD1FE00FF11F8083882369F070
:103370008C3731F4FE01E00FF11F12826701D1CFCB
:103380000F5F1F4F0730110521F72896E8E00C94D6
:10339000D32ECF93DF93EB0186319C4719F50E9422
:1033A000A00B9D819923A1F08A7A91E0811101C03F
:1033B00090E090939902882349F085E30E9492223D
:1033C0000E94360C80E0DF91CF91089589E2F6CF1C
:1033D00080919902882321F085E30E949A22F0CF00
:1033E00089E2FBCF81E0EFCFCF93DF93EC01FB01CC
:1033F0008581882309F4D2C09E01305723323105DC
:1034000008F0B2C00E94B70C9093C2028093C10230
:10341000FE01E150F047E232F10520F4E65AF04DAA
:103420000C94A02E8091C10281608093C10293C050
:103430008091C20288608093C2028DC08091C102D7
:103440008260F3CF8091C1028460EFCF8091C1028E
:103450008860EBCF8091C2028160EDCF8091C20283
:103460008260E9CF8091C1028061DFCF8091C1028B
:103470008062DBCF8091C1028064D7CF0E94350784
:103480008091C1028068D1CF8091C1028C60CDCF84
:103490008091C2028360CFCF8091C1028E7FC5CF61
:1034A0008091C202877FC7CF8091C1028D7FBDCF3F
:1034B0008091C1028B7FB9CF8091C102877FB5CF48
:1034C0008091C2028E7FB7CF8091C2028D7FB3CF31
:1034D0008091C1028F7EA9CF8091C1028F7DA5CF3F
:1034E0008091C1028F7BA1CF0E9435078091C102DC
:1034F0008F779BCF8091C102837F97CF8091C2024B
:103500008C7F99CF8091C10282FB992790F921E0AD
:10351000922790FB82F990FB83F987CF8091C202BA
:10352000982F909591708E7F892B90FB81F983CF96
:103530009091C102892F8F7B96FF806476CF0E9485
:1035400035079091C102892F97FB87F980586DCF7D
:1035500081E00E94470D8091C1029091C2020E94B9
:10356000BC0C0E94350780E0DF91CF91089580E088
:10357000F0CF9091C102892F8F7E94FF806155CF4B
:103580009091C102892F8E7F90FF81604ECF9091E4
:10359000C202892F877F93FF88604DCF81E0E4CFFF
:1035A000282F35EB2303C001112497FF04C0805856
:1035B0009109892F089580589F4FFBCF8091A002D9
:1035C00080FF0DC06091270170E0660F771F6038A3
:1035D0007105C0F561157105B9F1862F089581FF58
:1035E00007C06091270184E0689FB0011124EFCFEC
:1035F00082FF04C06091270188E0F6CF80919F028E
:103600008823E9F0909126016091270170E08917E5
:1036100030F093E0660F771F9A95E1F7D8CF869F39
:103620009001879F300D112483E0220F331F8A956C
:10363000E1F7692F70E0C9010E948C2EC8CF68E0C5
:1036400070E0CBCF8FE7089581E008958091A002CC
:1036500080FF0CC06091230170E0759567957595AA
:1036600067956115710561F1862F089581FF06C088
:103670006091230170E075956795F3CF6091230108
:1036800070E082FD15C020919E022223B1F090913E
:1036900022016091230170E0291750F4269FA001B8
:1036A000279F500D1124692F70E0CA010E948C2EB3
:1036B00060387105B0F28FE7089561E070E0D4CF13
:1036C00081E008959091A3022091A402922B209171
:1036D000A602922B2091A502922B992331F098E01B
:1036E00090939F0291E090939E028D3C31F40E9452
:1036F000DE1A81958093A4020895E2E3E80FE23197
:10370000B0F5F0E0E458F04D0C94A02E0E94DE1AC3
:10371000F1CF0E94DE1A81958093A30208950E9442
:10372000DE1AFACF0E94261B8093A50208950E94FC
:10373000261B8195F9CF0E94261B81958093A602B6
:1037400008950E94261BFACF815D990B21E030E09D
:1037500001C0220F8A95EAF78091A202822B809302
:10376000A20208958091A00281608093A002089532
:103770008091A0028260F9CF8091A0028460F5CF91
:103780004091A3028D3C59F48091A40287FF0DC0A3
:103790001092A402442359F410929F0208C08E3C58
:1037A00081F48091A40218169CF3442381F0809147
:1037B000A5029091A602892B811159C010929E02F8
:1037C00008958F3C41F447FFF0CF1092A3028091FF
:1037D000A4028823E0CF803D19F41416B4F3E5CF9A
:1037E0009091A502893D29F41916FCF61092A502C4
:1037F000DCCF8A3D19F497FFD8CFF8CF9091A6027D
:103800008B3D29F497FFD1CF1092A602CECF8C3DED
:1038100019F41916CCF3C9CF9FE2980F983090F4A1
:10382000815D990B21E030E0B90102C0660F771F7E
:103830008A95E2F7CB0180959091A202892380932B
:10384000A202B3CF8D3D31F48091A0028E7F809390
:10385000A002ABCF8E3D21F48091A0028D7FF7CFE7
:103860008F3D09F0A2CF8091A0028B7FF0CF089509
:103870000E947B232091A3023091A402232B2223B8
:1038800021F080939C0290939D022091A50230919B
:10389000A602232B222321F080939A0290939B026D
:1038A00081EA92E00E94D221089586E0E1EAF2E006
:1038B000DF011D928A95E9F710929F0210929E02F5
:1038C0001092A0020895FC01828181110DC08381B4
:1038D00081110AC08481811107C081E09581911115
:1038E00001C080E08170089581E0FCCFA6E0B0E0E7
:1038F000ECE7FCE10C94BA2E86E0E1EAF2E09E01EE
:103900002F5F3F4FD90101900D928A95E1F71092F8
:10391000A3021092A4021092A5021092A6028B811B
:103920009C81892B8901882391F080919C02909140
:103930009D020E94A4239C0180919F028823C9F1CB
:103940004091280150E04217530708F43FC08D8191
:103950009E81892B882399F080919A0290919B02F5
:103960000E94A4239C0180919E02882309F467C0D1
:103970004091240150E04217530708F46EC0B8018B
:1039800081EA92E00E94AD22811105C081EA92E0B5
:103990000E94631C81110E94381C86E0F801A1EA94
:1039A000B2E001900D928A95E1F72696E5E00C943D
:1039B000D62E409129019AE0499FA0011124421777
:1039C000530728F68F5F80939F0202C08F3FD1F785
:1039D000FB80FF2059F00E94DE1A91E01F140CF0CA
:1039E0009FEF899F802D11248093A302FC80FF20EC
:1039F00059F00E94DE1A91E01F140CF09FEF899F8E
:103A0000802D11248093A4028091A302882309F4BD
:103A10009ECFF090A402FF2009F499CF0E94D01A03
:103A2000811101C081E08093A3028F2D0E94D01AE2
:103A3000882319F08093A4028ACF81E0FBCF4091C4
:103A400025019AE0499FA00111244217530708F06D
:103A500096CF8F5F80939E0202C08F3FD1F7FD808B
:103A6000FF2059F00E94261B91E01F140CF09FEFDD
:103A7000899F802D11248093A502FE80FF2059F09C
:103A80000E94261B91E01F140CF09FEF899F802D50
:103A900011248093A6028091A502882309F46FCF98
:103AA000F090A602FF2009F46ACF0E94D01A81117B
:103AB00001C081E08093A5028F2D0E94D01A882337
:103AC00019F08093A6025BCF81E0FBCF9C01FB0144
:103AD000805494478034910538F481EC820F9581AD
:103AE000992321F00E94E31D81E008950E94E81DC2
:103AF000FBCF8150990B41E050E060E070E004C0E2
:103B0000440F551F661F771F8A95D2F78091A70231
:103B10009091A802A091A902B091AA02842B952BA2
:103B2000A62BB72B8093A7029093A802A093A9027B
:103B3000B093AA020895482F4150550B81E090E0C0
:103B4000A0E0B0E004C0880F991FAA1FBB1F4A95D0
:103B5000D2F780959095A095B0954091A70250918D
:103B6000A8026091A9027091AA0284239523A6233A
:103B7000B7238093A7029093A802A093A902B093C1
:103B8000AA020895A4E0B0E0E8ECFDE10C94BD2E9B
:103B90008091A7029091A802A091A902B091AA02D7
:103BA000BC01CD010E942D222496E2E00C94D92E76
:103BB0001092A7021092A8021092A9021092AA02D3
:103BC0000E94C21D08950E94791D0E94C21D089581
:103BD0000E949B1D0E94C21D0895A0E0B0E0E3EF8B
:103BE000FDE10C94B62EE82FF0E0EE54FD4FB490BA
:103BF000282F26952695269530E0F901EE5AFC4FA0
:103C00000491877010E0082E02C0159507950A945C
:103C1000E2F701701127F901EE5BFC4FE490F12C03
:103C2000082E02C0F594E7940A94E2F791E0E922A5
:103C3000FF24F901EE5CFC4FC491D0E002C0D595A1
:103C4000C7958A95E2F7C170DD27C62ED12C0115E4
:103C5000110549F5E114F10431F086EE0E943A04B1
:103C6000C601009771F5B6018B2D0E94B504C601FF
:103C7000009779F5E114F104A1F50115110531F072
:103C800081EE0E948204C6010097C9F5CD2B31F068
:103C90008CE20E94CD04C114D104C9F5CDB7DEB7C2
:103CA000E9E00C94D22E81EE0E943A04C6010097FE
:103CB00089F2EFE9FFE03197F1F700C000000197CA
:103CC000F6CFEFE9FFE03197F1F700C00000019770
:103CD000C8CFEFE9FFE03197F1F700C0000001978E
:103CE000C7CF86EE0E948204C601009731F2EFE949
:103CF000FFE03197F1F700C000000197F6CFEFE940
:103D0000FFE03197F1F700C000000197BDCF8FE9C8
:103D10009FE00197F1F700C0000091E0C91AD108B7
:103D2000BACFEF92FF921F93CF93DF93EC01162F40
:103D30008881882309F45AC0813009F053C08981F1
:103D4000813071F47E0182E0E80EF11C8A810E94CC
:103D5000CD04E701812F90E00097E1F52196E8CFAF
:103D6000823041F47E01E2E0EE0EF11C8A810E9475
:103D70003A04EFCF833041F47E01F2E0EF0EF11C04
:103D80008A810E948204E5CF843011F02196E2CF2F
:103D90002A81229680E090E06AE0AE014F5F5F4F9B
:103DA0002053330B2A30310550F0009799F2EFE998
:103DB000FFE03197F1F700C000000197F6CF689F50
:103DC000F001699FF00D1124C9018E0F9F1F2981F9
:103DD000EA01E3CFEFE9FFE03197F1F700C000001F
:103DE0000197BACF612F0E94ED1DB8CFDF91CF911F
:103DF0001F91FF90EF9008950F931F93CF93DF9340
:103E0000C42FD22FFC0185818823C9F04093AD02D5
:103E10000E947B239093AC028093AB0280E28C0FD4
:103E2000883040F4C77081E001C0880FCA95EAF776
:103E30000E94D604DF91CF911F910F9108951091A8
:103E4000AD0214133CC08091AB029091AC020E9471
:103E5000A423883C910598F5C0E2CD0F1D1741F1D0
:103E600080E2810F883040F4177081E001C0880F34
:103E70001A95EAF70E94DD04C83020F0802F0E94D6
:103E8000CD04D8CF91E08D2F877001C0990F8A950E
:103E9000EAF7892F0E94D604802F0E94CD04D770A4
:103EA00081E001C0880FDA95EAF70E94DD04C2CFF5
:103EB000802F0E94CD04C83008F0BCCFF0CF80E244
:103EC0008C0F883008F0B6CFC77081E001C0880F32
:103ED000CA95EAF7EACF0F93FC01CB01E851FC4702
:103EE000E730F10590F5E257F04D0C94A02E06E274
:103EF00021EE41EE6AE17CE70E94FC1E80E00F911A
:103F0000089507E225EE45EE6BE17CE7F5CF06E28A
:103F100021EE40EE68E17CE7EFCF07E225EE44EECC
:103F200069E17CE7E9CF06E221EE42EE6CE17CE755
:103F3000E3CF07E225EE46EE6DE17CE7DDCF08E258
:103F400021E045EE6EE17CE7D7CFFB018581811151
:103F50001092AD0281E0D3CFCF93DF939C01FB01A0
:103F600027378CE7380739F028373C47F1F081E0F4
:103F7000DF91CF9108958581882391F00E94DE1F03
:103F80000E94AF070E94E41FD82F0E94E11FC82F94
:103F90000E94DE1F4D2F6C2F0E94E10880E0E8CFC9
:103FA0000E94DE1F0E94BB07EDCF8581882319F098
:103FB0000E94E11FE5CF0E94E11FF4CF80912C0108
:103FC000089580912B01089580912A01089585E23A
:103FD00090E00E94FA2E843289F486E290E00E94FA
:103FE000FA2E843059F487E290E00E94FA2E91E094
:103FF000883209F090E0892F8170089580E0FCCF2D
:10400000882381F064E285E290E00E94182F64E04A
:1040100086E290E00E94182F68E287E290E00E941A
:10402000182F08956FEF85E290E00E94182F6FEF30
:1040300086E290E00E94182F6FEFEFCF0895A4E082
:10404000B0E0E5E2F0E20C94BD2E88E290E00E9440
:10405000FA2E282F30E040E050E0CA01B901249642
:10406000E2E00C94D92E0895CF93C62F0E943320FE
:104070006C2F88E290E00E94182FCF91089580E085
:104080000E94002060E070E0CB010E9434200E947A
:1040900086180E943B1981E00E94002008950E942A
:1040A0001E200E941F200E9433200E94E71F8111C2
:1040B00002C00E943F20089508959C01FB01858164
:1040C000882351F0A90157574038510530F4822F09
:1040D0000E944B1980E0089581E008952FEFFC01C4
:1040E000208308950E946E20089580E00895CF9265
:1040F000DF92FF920F931F93CF93DF93CDB7DEB77D
:104100002E970FB6F894DEBF0FBECDBF8D839E8372
:10411000F62E8D819E810E947520811115C0AD8182
:10412000BE81EC91E150E33140F5F0E0EB56F04D0B
:104130000C94A02EED81FE8111828CE082836F2D84
:104140008D819E810E9494272E960FB6F894DEBF33
:104150000FBECDBFDF91CF911F910F91FF90DF90E8
:10416000CF900895AD81BE8111968C91833099F1E5
:1041700048F4813081F08230E9F08FEFAD81BE816B
:104180008C93DDCF8430C9F7ED81FE8112821382DA
:1041900014821582D4CF0E9487230E94A62E6F839B
:1041A000788789879A87ED81FE8162837383848310
:1041B0009583C5CF0E941F200E94A62E6B877C8707
:1041C0008D879E87AD81BE8112966D937D938D9371
:1041D0009C931597B4CFED81FE81028110E06F01B1
:1041E000F3E0CF0ED11C083011050CF0A8CF802FC2
:1041F0000E94E010D6018D936D010F5F1F4FF3CF2A
:10420000ED81FE818181823049F0853009F0B5CFA2
:10421000ED81FE8182810E945C2091CFAD81BE81C3
:1042200012968D919D910D90BC91A02D89839A83BA
:10423000AB83BC83BC01CD010E94A62E0E9434201A
:104240007ECFAD81BE8113964C91139712966C91DF
:10425000129711968C910E944818982789279827C1
:10426000ED81FE81958384836ACFAD81BE811496F2
:104270002D913C91159732272327322713964C9185
:10428000139712966C91129711968C910E946A184E
:1042900056CF0E94861853CF6F2D8D819E810E942C
:1042A00072204DCF0E94F318ED81FE81818347CFAC
:1042B0000E94F518982789279827AD81BE8112960C
:1042C0009C938E9311973BCFED81FE81638170E0CB
:1042D00081819281AF014C5F5F4F98278927982792
:1042E0000E94F8182CCFAD81BE8113966C91139764
:1042F00070E011968D919C911297AD014C5F5F4FCC
:104300009827892798270E941A1919CF0E943B19CC
:1043100016CF0E943618C8CFAD81BE8113966C911E
:10432000139770E011968D919C911297AD014C5F9F
:104330005F4F9827892798270E94A61800CFED8104
:10434000FE81638170E081819281AF014C5F5F4F9C
:104350009827892798270E94C718F1CE9093B40216
:104360008093B30208950E949E12811103C0809130
:10437000AE020895E091B302F091B402309729F0B3
:104380000190F081E02D0995089580E00895E09175
:10439000B302F091B402309721F00280F381E02D56
:1043A00009950895DC01E091B302F091B4023097D1
:1043B00039F082E08C930680F781E02DCD010995DC
:1043C0000895A3E0B0E0E7EEF1E20C94BD2E9C016D
:1043D0008091B1029091B20282179307A1F03093BD
:1043E000B2022093B102E091B302F091B40230978F
:1043F00051F083E089833B832A830084F185E02D9B
:10440000CE01019609952396E2E00C94D92EA3E003
:10441000B0E0EDE0F2E20C94BD2E9C018091AF0281
:104420009091B00282179307A1F03093B0022093CD
:10443000AF02E091B302F091B402309751F084E002
:1044400089833B832A830084F185E02DCE01019688
:1044500009952396E2E00C94D92EA5E0B0E0E3E3C1
:10446000F2E20C94BD2E6A837B838C839D8385E06E
:104470008983CE0101960E949F282596E2E00C9444
:10448000D92E40910001509101019A012E5F3F4FBA
:10449000485F5F4F80E0F90190812F5F3F4F91119E
:1044A0008F5F42175307B9F70895882371F0209161
:1044B000000130910101F9013296285F3F4F91913F
:1044C000981729F0E217F307D1F780E0089581E00B
:1044D00008959C01FC0132968FEF90E041914617C0
:1044E00051F08F3F19F4411101C0892F9F5F963021
:1044F000A9F78F3F09F40895280F311D87FD3A95DC
:10450000F901628308959C01FC013296285F3F4FB8
:104510008191861303C0DF0111971C92E217F30704
:10452000B9F70895682F80910001909101010E94D0
:1045300069220895682F80910001909101010E94E5
:1045400083220895E0910001F0910101329686E006
:10455000DF011D928A95E9F70895DC01FB011196B0
:104560009C9111978181981322C012968C91129779
:10457000882319F0928189131AC013968C9113978E
:10458000882319F09381891312C015968C91159781
:10459000882319F0958189130AC014969C91992358
:1045A00021F081E02481291303C080E001C081E073
:1045B0008170089508950E94DA2208958F5F809394
:1045C000B5020E94DB22089583E08093B5020E9429
:1045D000DB2208950E94DE22089581E08093B502D7
:1045E0000E94DB2208950E94ED2208950895089507
:1045F0000E94F7220895089508950E94F6220895D2
:10460000CF930E94FB220E940F120E94FC22C0E066
:104610008C2F0E94E010811105C0CF5FC830C1F718
:10462000CF91089581E0FCCF85B7806885BF85B7BD
:10463000806885BF08951F921FB61F9211248F9323
:104640009F93AF93BF938091B602811113C0809165
:10465000E1049091E204A091E304B091E404419656
:10466000A11DB11D8093E1049093E204A093E304A3
:10467000B093E404BF91AF919F918F911F901FBEA3
:104680001F9018958091E904843031F10E94AC03A9
:104690001092B60288E190E020E40FB6F894A89555
:1046A000809360000FBE2093600083B7817F846099
:1046B00083BF83B7816083BF7894889583B78E7FEB
:1046C00083BF0FB6F894A8958091600088618093AD
:1046D0006000109260000FBE08950E9435070E948E
:1046E000B303089582E084BD93E095BD9AEF97BD32
:1046F00080936E0008952FB7F8948091E104909113
:10470000E204A091E304B091E4042FBF0895A4E073
:10471000B0E0EDE8F3E20C94BD2E8FB7F894209151
:10472000E1043091E2044091E3045091E4042983D0
:104730003A834B835C838FBF69817A818B819C81B3
:104740002496E2E00C94D92E9C014FB7F894809106
:10475000E1049091E204A091E304B091E4044FBF1E
:10476000821B930B0895A4E0B0E0E9EBF3E20C9414
:10477000BB2E462F572FBC012FB7F8948091E10430
:104780009091E204A091E304B091E4042FBF8C0166
:104790009D01041B150B260B370BC901B80124968C
:1047A000E4E00C94D72E78941F921FB61F92112428
:1047B0008F939F93AF93BF938091E1049091E20414
:1047C000A091E304B091E4040196A11DB11D809372
:1047D000E1049093E204A093E304B093E404BF9156
:1047E000AF919F918F911F901FBE1F90189587E7E3
:1047F00097E7909301088093000888E19AE00FB64C
:10480000F894A895809360000FBE90936000FFCF4E
:1048100088E19AE00FB6F894A895809360000FBEE7
:1048200090936000FFCFFF920F931F93CF93DF937E
:10483000182FEB011092BC0084EA8093BC000E9408
:104840007B23082FF92E8091BC0087FF28C0809120
:10485000B900887F883029F08091B900887F803145
:10486000A1F51093BB0084E88093BC000E947B23D9
:10487000182F092F8091BC0087FF1FC02091B9001D
:10488000287F80E090E0283199F081E090E02034AA
:1048900011F480E090E091958195910909C0802FF5
:1048A0009F2D0E94A423C817D90768F68EEF9FEFAB
:1048B000CDB7DEB7E5E00C94D62E812F902F0E9465
:1048C000A423C817D907B0F6F1CF8FEF9FEFF0CF31
:1048D0001092B9008CE08093B80008950F931F9355
:1048E000CF93DF93EB018093BB0084E88093BC00FF
:1048F0000E947B23182F092F8091BC0087FF11C0D5
:104900002091B900287F81E090E0283211F480E006
:1049100090E0919581959109DF91CF911F910F9131
:104920000895CF3FDC0741F3812F902F0E94A423ED
:10493000C817D90708F78EEF9FEFEECFA0E0B0E0E1
:10494000E4EAF4E20C94B22E782E5B016A0189014C
:104950000E947B234C010431110560F10F3F1007C9
:1049600069F1C80164E170E00E94782EF62EE72E0E
:104970006F2D7E2D872D0E941324EC0197FF09C017
:104980000F3F1007A9F3C4010E94A42308171907B9
:1049900078F77501CA0CDB1CEC14FD0411F0D7FF8D
:1049A00010C084E98093BC00CE01CDB7DEB7EDE046
:1049B0000C94CE2EFF24F394E12CDACF85E0F82E70
:1049C000FBCFB801F70181917F010E946E24EC01B9
:1049D000E3CFA0E0B0E0EFEEF4E20C94B22E782E3C
:1049E0005B016A0189010E947B234C01043111059E
:1049F00060F10F3F100769F1C80164E170E00E94A7
:104A0000782EF62EE72E6F2D7E2D872D0E941324F3
:104A1000EC0197FF09C00F3F1007A9F3C4010E94E2
:104A2000A4230817190778F77501CA0CDB1CEC14CE
:104A3000FD0411F0D7FF10C084E98093BC00CE01C3
:104A4000CDB7DEB7EDE00C94CE2EFF24F394E12C2D
:104A5000DACF85E0F82EFBCFF7018491B8010E94F0
:104A60006E24EC01FFEFEF1AFF0AE1CFA0E0B0E007
:104A7000ECE3F5E20C94B12E682E962E5A016901F2
:104A800078010E947B23782E892E0431110530F1A4
:104A90000F3F100731F1C80164E170E00E94782EE9
:104AA000162F072F612F702F862D0E941324EC01E3
:104AB00097FF19C0FFEFEF16FF06A1F3872D982D82
:104AC0000E94A423E816F90668F784E98093BC00E5
:104AD000CE01CDB7DEB7EEE00C94CD2E11E000E0B4
:104AE000E1CF15E0FCCFB701892D0E946E24EC01C7
:104AF0008501CA0CDB1C0C151D0539F3D7FDE5CF6C
:104B0000B701F80181918F010E946E24EC01F3CF6F
:104B10008EE14A9B03C081508111FBCF4A9BFECF9F
:104B200008955A9880E28A95F1F75A9A0895FC01FF
:104B30003BE03A95F1F798E020E080E031E040E199
:104B40004A95F1F7880F4A9B02C08160232742E013
:104B50004A95F1F7000040E14A95F1F79150911123
:104B6000EECF90E19A95F1F799B132E03A95F1F7ED
:104B7000000040E14A95F1F792FB992790F99227BE
:104B80002081920F90830895A1E0B0E0EAECF5E275
:104B90000C94B92E19828C017C01E60EF11C0E15C5
:104BA0001F0541F481E09981911180E02196E6E0B2
:104BB0000C94D52E0E948825CE0101960E9497253F
:104BC000F80181938F01EBCF529A5A9A0895529827
:104BD0005A9AEA9AE9E6F0E080818F7C8083089512
:104BE0006150770B91E001C0990F6A95EAF7692F40
:104BF00090E021E0611108C0992399F05A9A80E26F
:104C00008A95F1F75A980895362F3823332339F0CF
:104C10005A9A922730E23A95F1F76695EBCF5A9877
:104C2000F9CF5A98ECCFFF920F931F93CF93DF9356
:104C3000EC018C01060F111DC017D10729F4CDB767
:104C4000DEB7E5E00C94D62EF9900E94912568E03D
:104C50008F2D0E94F025F0CF1F920F920FB60F926A
:104C600011240F931F932F933F934F935F936F9351
:104C70007F938F939F93AF93BF93EF93FF93CF93C4
:104C8000DF930F92CDB7DEB719820E948825CE013F
:104C900001960E949725082F069506950695982F50
:104CA00092959570202F2570920F292F237096953D
:104CB0009695920F982797708981892B81115CC0F6
:104CC000043008F059C080E18A95F1F75A9A529A57
:104CD00082E08A95F1F700C05A9888E0089F800129
:104CE0001124D801AD5FBE4F1696ED91FC91179738
:104CF0003097A9F06091AE017091AF0114962D919B
:104D00003C911597260F371F11968D919C91129704
:104D1000680F791F13964C9113978C910995F801A0
:104D2000ED5FFE4F6381662351F02091AE0130911B
:104D3000AF0184819581820F931F0E9413260E94E8
:104D4000912580E18A95F1F75A9852985A9A80E114
:104D50008A95F1F7F801ED5FFE4F6081662351F00F
:104D60002091AE013091AF0181819281820F931F1A
:104D70000E94C4250E9488250F90DF91CF91FF915A
:104D8000EF91BF91AF919F918F917F916F915F91C3
:104D90004F913F912F911F910F910F900FBE0F9048
:104DA0001F9018950F931F93CF93DF938C01049757
:104DB0000CF065C0F894529A5A9885E08A95F1F7FC
:104DC0000000C02FC695C570802F8570C80F8C2F2E
:104DD0008370C695C69593E0000F111F9A95E1F771
:104DE000C80FC8018C2BEC010E94912500C068E01F
:104DF0008C2F0E94F02590E19A95F1F752985A9ADB
:104E00004A9B35C087E090E04A9933C0F801ED5FD6
:104E1000FE4F6381662361F02091AE013091AF01B6
:104E200084819581820F931F0E94C425882321F1DC
:104E30000E94882580E28A95F1F75A98529A90E16B
:104E40009A95F1F7F801ED5FFE4F6081662351F00E
:104E50002091AE013091AF0181819281820F931F29
:104E60000E9413260E949125789481E009C000C019
:104E7000C7CF0197009749F4529A5A9A789480E0E4
:104E8000DF91CF911F910F91089500C0BDCF809108
:104E9000BF0208950895282FCB01BA013091E9048B
:104EA0003430E1F42F702093E9002FEF3091E800C7
:104EB00035FD07C035ED3A95F1F70000215021117D
:104EC000F5CF2091E80025FF09C040E050E00E94A6
:104ED00095298091E8008E778093E8000895BC01C1
:104EE00043E050E084E00E944B270895BC0146E077
:104EF00050E084E00E944B270895CF93DF93D82F92
:104F0000C92F48E050E0682F792F81E00E944B279D
:104F100088E0ED2FFC2FA7EBB2E001900D928A956F
:104F2000E1F7DF91CF910895792F603231F440E2BB
:104F300050E0682F82E00E944B2708958091E8049A
:104F4000811109C00E946C2B0E94C92B8091E20044
:104F500084608093E20008951092E80408950E940E
:104F6000ED2208956091E50481E0611101C080E0C7
:104F70000E94E42208959091E90481E0943009F0C0
:104F800080E06091E5040E94EA22089542E061EC2D
:104F900081E00E94E82A42E261EC84E00E94E82A73
:104FA00042E261EC82E00E94E82A42E260EC83E0A7
:104FB0000E94E82A9091E90481E0943009F080E0B1
:104FC0006091E5040E94DE2208958091EB0489300F
:104FD00089F148F4823009F4A1C0833009F45BC040
:104FE000813041F008958A3009F488C08B3009F48B
:104FF0006DC008958091EA04813A09F04BC0809118
:10500000E800877F8093E8008091EE049091EF04A0
:10501000892B61F060E080E090E070E00E94332A2C
:105020008091E8008B778093E800089568E087EB33
:1050300092E0F3CF8091EA04813261F58091EE0431
:105040009091EF048D7F892B29F58091E800877F6F
:105050008093E8008091E80082FF18C09091F300EF
:105060008091F200029731F48091F100813011F0CB
:10507000863021F48091F1008093BF028091E80096
:105080008B778093E8000E941C2B04C08091E90478
:105090008111E0CF08958091EA04813AD9F7809197
:1050A000EE049091EF04892BA9F78091E800877FA7
:1050B0008093E8008091E80080FFFCCF8091370169
:1050C0008093F1008091E8008E77DBCF8091EA0435
:1050D000813201F78091EE049091EF04892BD1F693
:1050E0008091E800877F8093E8000E941C2B8091CC
:1050F000EC04809337010E94350708958091EA04FB
:10510000813241F68091E800877F8093E8000E9419
:105110001C2B8091ED048093C00208958091EA04D5
:10512000813A09F0B7CF8091E800877F8093E8004B
:105130008091E80080FFFCCF8091C002C1CFBC010C
:1051400045E050E084E00E944B27089584B7877FB4
:1051500084BF0FB6F894A895809160008861809311
:105160006000109260000FBE80E890E00FB6F894E7
:1051700080936100909361000FBE0E94F322089516
:105180000E946C2B0E94C92BE2EEF0E080818460CB
:10519000808378940E944C2E08958DE291E00E94C5
:1051A000AE2108958091E904853031F48091E904BD
:1051B000853019F00E946D2308950E94422380914A
:1051C000E704882399F30E940023882379F30E943F
:1051D0007F290E943507EACFA0E2B0E0E2EFF8E2D3
:1051E0000C94BD2E8091E904843081F483E0809397
:1051F000E9008091E80082FF09C08091E80085FD08
:1052000009C08091E8008B778093E800A096E2E0E7
:105210000C94D92E40E050E060E270E0CE0101969F
:105220000E94E4298091E8008B778093E80060E297
:10523000CE0101960E947720E9CF9A014091F004B7
:105240005091F1040E9425290895AC01CB01D901A8
:10525000252F33272330310521F168F42130310522
:1052600009F443C02230310509F444C080E090E0E5
:1052700020E030E024C02132310551F122323105E5
:10528000A9F78330910590F7FC01EE0FFF1FE5545D
:10529000FE4F2081318188549E4FFC01808190E037
:1052A0000EC0CA019927413069F08230910569F03A
:1052B000E0E8F3E0892BD1F6849190E09F012D93F3
:1052C0003C930895E2E7F3E0F7CFE2E6F3E0F4CFB2
:1052D0008330910558F6FC01EE0FFF1FEF53FE4F90
:1052E0002081318189E090E0EACF82E190E02FEDEA
:1052F00033E0E5CF8BE590E024E833E0E0CF80E1D8
:1053000089BD82E189BD09B400FEFDCF8091D8003E
:105310008F7D8093D8008091E00082608093E000D0
:105320008091E00081FDFCCF0895AF92BF92CF92B3
:10533000DF92FF920F931F93CF93DF936C01EB01EA
:105340008A010E943B2BF82E811123C00115110503
:1053500039F0F80180819181C81BD90BC80ED91E84
:10536000A12CB12C2097A9F08091E80085FD22C0E6
:105370008091E8008E778093E80001151105A1F077
:10538000F801808191818A0D9B1D9183808385E046
:10539000F82E8F2DDF91CF911F910F91FF90DF900D
:1053A000CF90BF90AF9008950E943B2B8823E1F2ED
:1053B000F82EEFCFF60181916F018093F1002197D4
:1053C000FFEFAF1ABF0ACECFAF92BF92CF92DF925C
:1053D000FF920F931F93CF93DF936C01EB018A0130
:1053E0000E943B2BF82E811123C00115110539F0C5
:1053F000F80180819181C81BD90BC80ED91EA12C40
:10540000B12C2097A9F08091E80085FD22C0809101
:10541000E8008B778093E80001151105A1F0F801F1
:10542000808191818A0D9B1D9183808385E0F82E78
:105430008F2DDF91CF911F910F91FF90DF90CF9033
:10544000BF90AF9008950E943B2B8823E1F2F82E85
:10545000EFCF8091F100F60181936F012197FFEF6B
:10546000AF1ABF0ACECFFC019B018091F00490914E
:10547000F1048617970718F0672B61F0C90140E027
:10548000009771F441110CC08091E80082FF35C093
:1054900080E008958091E8008E778093E800EECF59
:1054A0002091E9042223A9F12530A9F12091E800F7
:1054B00023FD2DC02091E80022FDE6CF2091E800D9
:1054C00020FFDECF3091F3002091F200009719F019
:1054D0002830310558F041E02830310509F040E02E
:1054E0002091E8002E772093E800CACF41914093A5
:1054F000F10001972F5F3F4FE9CF8091E9048823A6
:1055000041F0853041F08091E80083FFBDCF81E01C
:10551000089582E0089583E00895FC019B01809145
:10552000F0049091F1048617970718F0672B61F04B
:10553000C90140E0009771F441110CC08091E8006E
:1055400082FF36C080E008958091E8008E778093D6
:10555000E800EECF2091E9042223B1F12530B1F12A
:105560002091E80023FD2EC02091E80022FDE6CF27
:105570002091E80020FFDECF3091F3002091F2006F
:10558000009719F02830310558F041E028303105F6
:1055900009F040E02091E8002E772093E800CACF80
:1055A00044914093F100319601972F5F3F4FE8CF30
:1055B0008091E904882341F0853041F08091E80032
:1055C00083FFBCCF81E0089582E0089583E00895D1
:1055D000982F973028F08F708093E90081E008952C
:1055E0009093E900242F762F50E0981731F07091B6
:1055F000EC002091ED005091F00021FD02C09F5F72
:10560000E8CF3091EB003E7F3093EB003091ED001E
:105610003D7F3093ED003091EB0031603093EB0033
:105620007093EC002093ED005093F0002091EE0079
:1056300027FDE5CF80E008958091EA0487FF13C03D
:105640008091E80082FF06C08091E8008B7780930C
:10565000E80004C08091E9048111F2CF089580919F
:10566000E9048823D9F38091E80080FFF8CF809186
:10567000E8008E77ECCF2091E4003091E50095E6CC
:10568000A9018091EC008170882331F08091E800BD
:1056900080FF06C080E008952091E80022FD1BC035
:1056A0008091E904882391F0853091F08091EB009E
:1056B00085FD10C02091E4003091E50042175307AA
:1056C00001F391509111DCCF84E0089582E00895B8
:1056D00083E0089581E008950E94DB2B0E94E32B74
:1056E000E0EEF0E0808181608083E8EDF0E0808191
:1056F0008F77808319BCA7EDB0E08C918E7F8C935F
:1057000080818F7E80831092E80408950F931F9309
:10571000CF93DF930E94DB2B0E94E32BC8EDD0E0F8
:1057200088818F77888388818068888388818F7D4E
:10573000888319BC1092E9041092E5041092E704E2
:105740001092E60400EE10E0F80180818B7F8083E8
:1057500088818160888342E060E080E00E94E82ADE
:10576000E1EEF0E080818E7F8083E2EEF0E08081E8
:1057700081608083808188608083F80180818E7F52
:105780008083888180618883DF91CF911F910F9101
:105790000895E8EDF0E080818F7E8083E7EDF0E012
:1057A00080818160808384E082BF81E08093E8040F
:1057B0000E94862B0895E8EDF0E080818E7F808343
:1057C0001092E20008951092DA001092E10008951C
:1057D0001F920F920FB60F9211242F933F934F9366
:1057E0005F936F937F938F939F93AF93BF93EF9349
:1057F000FF938091E10082FF0BC08091E20082FF65
:1058000007C08091E1008B7F8093E1000E944B2EC6
:105810008091DA0080FF19C08091D80080FF15C008
:105820008091DA008E7F8093DA008091D90080FF2A
:1058300094C080E189BD82E189BD09B400FEFDCF3D
:1058400081E08093E9040E949E278091E10080FF1F
:1058500019C08091E20080FF15C08091E2008E7F28
:105860008093E2008091E20080618093E200809169
:10587000D80080628093D80019BC85E08093E90449
:105880000E94B2278091E10084FF29C08091E2004C
:1058900084FF25C080E189BD82E189BD09B400FE95
:1058A000FDCF8091D8008F7D8093D8008091E1005A
:1058B0008F7E8093E1008091E2008F7E8093E200F2
:1058C0008091E20081608093E2008091E50488236A
:1058D00009F449C084E08093E9040E94BB278091C9
:1058E000E10083FF29C08091E20083FF25C0809101
:1058F000E100877F8093E10082E08093E9041092C9
:10590000E5048091E1008E7F8093E1008091E200C8
:105910008E7F8093E2008091E20080618093E200BC
:1059200042E060E080E00E94E82A8091F000886018
:105930008093F0000E94AF27FF91EF91BF91AF914C
:105940009F918F917F916F915F914F913F912F9197
:105950000F900FBE0F901F90189519BC1092E9047C
:105960000E94AC2772CF8091E30087FF02C083E0E2
:10597000B2CF81E0B0CF1F920F920FB60F921124D9
:10598000FF920F931F932F933F934F935F936F93C8
:105990007F938F939F93AF93BF93CF93DF93EF93B7
:1059A000FF9309EE10E0F8018081C091EC00C795EB
:1059B000CC27C7958F70FC2EF82A1082C0EFD0E05C
:1059C0008881877F888378940E94042DF801108253
:1059D000888188608883CF2DCF70C083FF91EF913D
:1059E000DF91CF91BF91AF919F918F917F916F91F7
:1059F0005F914F913F912F911F910F91FF900F90C9
:105A00000FBE0F901F901895AAE2B0E0EAE0FDE209
:105A10000C94BC2E8AEE94E0FC0101962091F100DA
:105A2000208324E0823F9207B9F70E94E527809106
:105A3000E80083FF38C08091EA049091EB049A302B
:105A400090F5E92FF0E0E855F04D0C94A02E803849
:105A500089F0823841F58091EE048F70873018F517
:105A60008093E9008091EB0085FB882780F91092F4
:105A7000E90006C08091E6049091E70491118260EC
:105A80009091E800977F9093E8008093F100109246
:105A9000F1008091E8008E7723C0811116C08091BB
:105AA000EC04813011F18091E80083FF0AC08091FD
:105AB000E800877F8093E8008091EB00806280930C
:105AC000EB00AA96E3E00C94D82E823061F7809127
:105AD000EC04882389F01092E9008091E800877F28
